{
  "_format": "hh-sol-artifact-1",
  "contractName": "ERC721Enumerable",
  "sourceName": "contracts/ERC721Enumerable.sol",
  "abi": [
    {
      "inputs": [],
      "name": "ERC721__ADDRESS_ZERO",
      "type": "error"
    },
    {
      "inputs": [],
      "name": "ERC721__INVALID_USER",
      "type": "error"
    },
    {
      "inputs": [],
      "name": "ERC721__NOT_OWNER",
      "type": "error"
    },
    {
      "inputs": [],
      "name": "ERC721__SAME_ADDRESS",
      "type": "error"
    },
    {
      "anonymous": false,
      "inputs": [
        {
          "indexed": true,
          "internalType": "address",
          "name": "_owner",
          "type": "address"
        },
        {
          "indexed": true,
          "internalType": "address",
          "name": "_approved",
          "type": "address"
        },
        {
          "indexed": true,
          "internalType": "uint256",
          "name": "_tokenId",
          "type": "uint256"
        }
      ],
      "name": "Approval",
      "type": "event"
    },
    {
      "anonymous": false,
      "inputs": [
        {
          "indexed": true,
          "internalType": "address",
          "name": "_from",
          "type": "address"
        },
        {
          "indexed": true,
          "internalType": "address",
          "name": "_to",
          "type": "address"
        },
        {
          "indexed": true,
          "internalType": "uint256",
          "name": "_tokenId",
          "type": "uint256"
        }
      ],
      "name": "Transfer",
      "type": "event"
    },
    {
      "inputs": [
        {
          "internalType": "address",
          "name": "_to",
          "type": "address"
        },
        {
          "internalType": "uint256",
          "name": "_tokenId",
          "type": "uint256"
        }
      ],
      "name": "approve",
      "outputs": [],
      "stateMutability": "nonpayable",
      "type": "function"
    },
    {
      "inputs": [
        {
          "internalType": "address",
          "name": "_owner",
          "type": "address"
        }
      ],
      "name": "balanceOf",
      "outputs": [
        {
          "internalType": "uint256",
          "name": "",
          "type": "uint256"
        }
      ],
      "stateMutability": "view",
      "type": "function"
    },
    {
      "inputs": [
        {
          "internalType": "uint256",
          "name": "_tokenId",
          "type": "uint256"
        }
      ],
      "name": "ownerOf",
      "outputs": [
        {
          "internalType": "address",
          "name": "",
          "type": "address"
        }
      ],
      "stateMutability": "view",
      "type": "function"
    },
    {
      "inputs": [
        {
          "internalType": "uint256",
          "name": "index",
          "type": "uint256"
        }
      ],
      "name": "tokenByIndex",
      "outputs": [
        {
          "internalType": "uint256",
          "name": "",
          "type": "uint256"
        }
      ],
      "stateMutability": "view",
      "type": "function"
    },
    {
      "inputs": [
        {
          "internalType": "address",
          "name": "owner",
          "type": "address"
        },
        {
          "internalType": "uint256",
          "name": "index",
          "type": "uint256"
        }
      ],
      "name": "tokenOfOwnerByIndex",
      "outputs": [
        {
          "internalType": "uint256",
          "name": "",
          "type": "uint256"
        }
      ],
      "stateMutability": "view",
      "type": "function"
    },
    {
      "inputs": [],
      "name": "totalSupply",
      "outputs": [
        {
          "internalType": "uint256",
          "name": "",
          "type": "uint256"
        }
      ],
      "stateMutability": "view",
      "type": "function"
    },
    {
      "inputs": [
        {
          "internalType": "address",
          "name": "_from",
          "type": "address"
        },
        {
          "internalType": "address",
          "name": "_to",
          "type": "address"
        },
        {
          "internalType": "uint256",
          "name": "tokenId",
          "type": "uint256"
        }
      ],
      "name": "transferFrom",
      "outputs": [],
      "stateMutability": "nonpayable",
      "type": "function"
    }
  ],
  "bytecode": "0x608060405234801561001057600080fd5b50610bf3806100206000396000f3fe608060405234801561001057600080fd5b506004361061007d5760003560e01c80632f745c591161005b5780632f745c59146100d85780634f6ccce7146101085780636352211e1461013857806370a08231146101685761007d565b8063095ea7b31461008257806318160ddd1461009e57806323b872dd146100bc575b600080fd5b61009c600480360381019061009791906108bc565b610198565b005b6100a6610322565b6040516100b391906109e8565b60405180910390f35b6100d660048036038101906100d19190610869565b61032f565b005b6100f260048036038101906100ed91906108bc565b61033f565b6040516100ff91906109e8565b60405180910390f35b610122600480360381019061011d91906108fc565b6103ef565b60405161012f91906109e8565b60405180910390f35b610152600480360381019061014d91906108fc565b610460565b60405161015f919061098d565b60405180910390f35b610182600480360381019061017d919061083c565b610508565b60405161018f91906109e8565b60405180910390f35b60006101a382610460565b90508073ffffffffffffffffffffffffffffffffffffffff168373ffffffffffffffffffffffffffffffffffffffff16141561020b576040517fcde4871900000000000000000000000000000000000000000000000000000000815260040160405180910390fd5b8073ffffffffffffffffffffffffffffffffffffffff163373ffffffffffffffffffffffffffffffffffffffff1614610270576040517f6e6381ed00000000000000000000000000000000000000000000000000000000815260040160405180910390fd5b826002600084815260200190815260200160002060006101000a81548173ffffffffffffffffffffffffffffffffffffffff021916908373ffffffffffffffffffffffffffffffffffffffff160217905550818373ffffffffffffffffffffffffffffffffffffffff168273ffffffffffffffffffffffffffffffffffffffff167f8c5be1e5ebec7d5bd14f71427d1e84f3dd0314c0f7b2291e5b200ac8c7c3b92560405160405180910390a4505050565b6000600380549050905090565b61033a8383836105b7565b505050565b600061034a83610508565b821061038b576040517f08c379a0000000000000000000000000000000000000000000000000000000008152600401610382906109c8565b60405180910390fd5b600560008473ffffffffffffffffffffffffffffffffffffffff1673ffffffffffffffffffffffffffffffffffffffff16815260200190815260200160002082815481106103dc576103db610b09565b5b9060005260206000200154905092915050565b60006103f9610322565b821061043a576040517f08c379a0000000000000000000000000000000000000000000000000000000008152600401610431906109a8565b60405180910390fd5b6003828154811061044e5761044d610b09565b5b90600052602060002001549050919050565b60008060008084815260200190815260200160002060009054906101000a900473ffffffffffffffffffffffffffffffffffffffff169050600073ffffffffffffffffffffffffffffffffffffffff168173ffffffffffffffffffffffffffffffffffffffff1614156104ff576040517fe945b36300000000000000000000000000000000000000000000000000000000815260040160405180910390fd5b80915050919050565b60008073ffffffffffffffffffffffffffffffffffffffff168273ffffffffffffffffffffffffffffffffffffffff161415610570576040517fe945b36300000000000000000000000000000000000000000000000000000000815260040160405180910390fd5b600160008373ffffffffffffffffffffffffffffffffffffffff1673ffffffffffffffffffffffffffffffffffffffff168152602001908152602001600020549050919050565b600073ffffffffffffffffffffffffffffffffffffffff168273ffffffffffffffffffffffffffffffffffffffff16141561061e576040517fedc5271400000000000000000000000000000000000000000000000000000000815260040160405180910390fd5b8273ffffffffffffffffffffffffffffffffffffffff1660008083815260200190815260200160002060009054906101000a900473ffffffffffffffffffffffffffffffffffffffff1673ffffffffffffffffffffffffffffffffffffffff16146106b5576040517f6e6381ed00000000000000000000000000000000000000000000000000000000815260040160405180910390fd5b60018060008573ffffffffffffffffffffffffffffffffffffffff1673ffffffffffffffffffffffffffffffffffffffff16815260200190815260200160002060008282546107049190610a6a565b9250508190555060018060008473ffffffffffffffffffffffffffffffffffffffff1673ffffffffffffffffffffffffffffffffffffffff168152602001908152602001600020600082825461075a9190610a14565b925050819055508160008083815260200190815260200160002060006101000a81548173ffffffffffffffffffffffffffffffffffffffff021916908373ffffffffffffffffffffffffffffffffffffffff160217905550808273ffffffffffffffffffffffffffffffffffffffff168473ffffffffffffffffffffffffffffffffffffffff167fddf252ad1be2c89b69c2b068fc378daa952ba7f163c4a11628f55a4df523b3ef60405160405180910390a4505050565b60008135905061082181610b8f565b92915050565b60008135905061083681610ba6565b92915050565b60006020828403121561085257610851610b38565b5b600061086084828501610812565b91505092915050565b60008060006060848603121561088257610881610b38565b5b600061089086828701610812565b93505060206108a186828701610812565b92505060406108b286828701610827565b9150509250925092565b600080604083850312156108d3576108d2610b38565b5b60006108e185828601610812565b92505060206108f285828601610827565b9150509250929050565b60006020828403121561091257610911610b38565b5b600061092084828501610827565b91505092915050565b61093281610a9e565b82525050565b6000610945601e83610a03565b915061095082610b3d565b602082019050919050565b6000610968601d83610a03565b915061097382610b66565b602082019050919050565b61098781610ad0565b82525050565b60006020820190506109a26000830184610929565b92915050565b600060208201905081810360008301526109c181610938565b9050919050565b600060208201905081810360008301526109e18161095b565b9050919050565b60006020820190506109fd600083018461097e565b92915050565b600082825260208201905092915050565b6000610a1f82610ad0565b9150610a2a83610ad0565b9250827fffffffffffffffffffffffffffffffffffffffffffffffffffffffffffffffff03821115610a5f57610a5e610ada565b5b828201905092915050565b6000610a7582610ad0565b9150610a8083610ad0565b925082821015610a9357610a92610ada565b5b828203905092915050565b6000610aa982610ab0565b9050919050565b600073ffffffffffffffffffffffffffffffffffffffff82169050919050565b6000819050919050565b7f4e487b7100000000000000000000000000000000000000000000000000000000600052601160045260246000fd5b7f4e487b7100000000000000000000000000000000000000000000000000000000600052603260045260246000fd5b600080fd5b7f676c6f62616c20696e646578206973206f7574206f6620626f756e6473210000600082015250565b7f6f776e657220696e646578206973206f7574206f6620626f756e647321000000600082015250565b610b9881610a9e565b8114610ba357600080fd5b50565b610baf81610ad0565b8114610bba57600080fd5b5056fea2646970667358221220fa1154d956c35379331e79fde240559c448c982283b6e03c29b36b81be72c91b64736f6c63430008070033",
  "linkReferences": {},
  "deployedLinkReferences": {}
}