{
  "_format": "hh-sol-artifact-1",
  "contractName": "Kryptozombie",
  "sourceName": "contracts/Kryptozombie.sol",
  "abi": [
    {
      "inputs": [],
      "stateMutability": "nonpayable",
      "type": "constructor"
    },
    {
      "inputs": [],
      "name": "ERC721__ADDRESS_ZERO",
      "type": "error"
    },
    {
      "inputs": [],
      "name": "ERC721__ALREADY_MINTED",
      "type": "error"
    },
    {
      "inputs": [],
      "name": "ERC721__INVALID_USER",
      "type": "error"
    },
    {
      "inputs": [],
      "name": "ERC721__NOT_OWNER",
      "type": "error"
    },
    {
      "inputs": [],
      "name": "ERC721__SAME_ADDRESS",
      "type": "error"
    },
    {
      "inputs": [],
      "name": "Kryptozombie__ALREADY_EXISTS",
      "type": "error"
    },
    {
      "anonymous": false,
      "inputs": [
        {
          "indexed": true,
          "internalType": "address",
          "name": "_owner",
          "type": "address"
        },
        {
          "indexed": true,
          "internalType": "address",
          "name": "_approved",
          "type": "address"
        },
        {
          "indexed": true,
          "internalType": "uint256",
          "name": "_tokenId",
          "type": "uint256"
        }
      ],
      "name": "Approval",
      "type": "event"
    },
    {
      "anonymous": false,
      "inputs": [
        {
          "indexed": true,
          "internalType": "address",
          "name": "_from",
          "type": "address"
        },
        {
          "indexed": true,
          "internalType": "address",
          "name": "_to",
          "type": "address"
        },
        {
          "indexed": true,
          "internalType": "uint256",
          "name": "_tokenId",
          "type": "uint256"
        }
      ],
      "name": "Transfer",
      "type": "event"
    },
    {
      "inputs": [
        {
          "internalType": "address",
          "name": "_to",
          "type": "address"
        },
        {
          "internalType": "uint256",
          "name": "_tokenId",
          "type": "uint256"
        }
      ],
      "name": "approve",
      "outputs": [],
      "stateMutability": "nonpayable",
      "type": "function"
    },
    {
      "inputs": [
        {
          "internalType": "address",
          "name": "_owner",
          "type": "address"
        }
      ],
      "name": "balanceOf",
      "outputs": [
        {
          "internalType": "uint256",
          "name": "",
          "type": "uint256"
        }
      ],
      "stateMutability": "view",
      "type": "function"
    },
    {
      "inputs": [
        {
          "internalType": "uint256",
          "name": "",
          "type": "uint256"
        }
      ],
      "name": "kryptoZombie",
      "outputs": [
        {
          "internalType": "string",
          "name": "",
          "type": "string"
        }
      ],
      "stateMutability": "view",
      "type": "function"
    },
    {
      "inputs": [
        {
          "internalType": "string",
          "name": "_kryptoZombie",
          "type": "string"
        }
      ],
      "name": "mint",
      "outputs": [],
      "stateMutability": "nonpayable",
      "type": "function"
    },
    {
      "inputs": [],
      "name": "name",
      "outputs": [
        {
          "internalType": "string",
          "name": "",
          "type": "string"
        }
      ],
      "stateMutability": "view",
      "type": "function"
    },
    {
      "inputs": [
        {
          "internalType": "uint256",
          "name": "_tokenId",
          "type": "uint256"
        }
      ],
      "name": "ownerOf",
      "outputs": [
        {
          "internalType": "address",
          "name": "",
          "type": "address"
        }
      ],
      "stateMutability": "view",
      "type": "function"
    },
    {
      "inputs": [
        {
          "internalType": "bytes4",
          "name": "interfaceId",
          "type": "bytes4"
        }
      ],
      "name": "supportsInterface",
      "outputs": [
        {
          "internalType": "bool",
          "name": "",
          "type": "bool"
        }
      ],
      "stateMutability": "view",
      "type": "function"
    },
    {
      "inputs": [],
      "name": "symbol",
      "outputs": [
        {
          "internalType": "string",
          "name": "",
          "type": "string"
        }
      ],
      "stateMutability": "view",
      "type": "function"
    },
    {
      "inputs": [
        {
          "internalType": "uint256",
          "name": "index",
          "type": "uint256"
        }
      ],
      "name": "tokenByIndex",
      "outputs": [
        {
          "internalType": "uint256",
          "name": "",
          "type": "uint256"
        }
      ],
      "stateMutability": "view",
      "type": "function"
    },
    {
      "inputs": [
        {
          "internalType": "address",
          "name": "owner",
          "type": "address"
        },
        {
          "internalType": "uint256",
          "name": "index",
          "type": "uint256"
        }
      ],
      "name": "tokenOfOwnerByIndex",
      "outputs": [
        {
          "internalType": "uint256",
          "name": "",
          "type": "uint256"
        }
      ],
      "stateMutability": "view",
      "type": "function"
    },
    {
      "inputs": [],
      "name": "totalSupply",
      "outputs": [
        {
          "internalType": "uint256",
          "name": "",
          "type": "uint256"
        }
      ],
      "stateMutability": "view",
      "type": "function"
    },
    {
      "inputs": [
        {
          "internalType": "address",
          "name": "_from",
          "type": "address"
        },
        {
          "internalType": "address",
          "name": "_to",
          "type": "address"
        },
        {
          "internalType": "uint256",
          "name": "tokenId",
          "type": "uint256"
        }
      ],
      "name": "transferFrom",
      "outputs": [],
      "stateMutability": "nonpayable",
      "type": "function"
    }
  ],
  "bytecode": "0x60806040523480156200001157600080fd5b506040518060400160405280600c81526020017f4b727970746f5a6f6d62696500000000000000000000000000000000000000008152506040518060400160405280600381526020017f4b505a00000000000000000000000000000000000000000000000000000000008152508181816000908051906020019062000098929190620000bc565b508060019080519060200190620000b1929190620000bc565b5050505050620001d1565b828054620000ca906200016c565b90600052602060002090601f016020900481019282620000ee57600085556200013a565b82601f106200010957805160ff19168380011785556200013a565b828001600101855582156200013a579182015b82811115620001395782518255916020019190600101906200011c565b5b5090506200014991906200014d565b5090565b5b80821115620001685760008160009055506001016200014e565b5090565b600060028204905060018216806200018557607f821691505b602082108114156200019c576200019b620001a2565b5b50919050565b7f4e487b7100000000000000000000000000000000000000000000000000000000600052602260045260246000fd5b61199480620001e16000396000f3fe608060405234801561001057600080fd5b50600436106100b45760003560e01c80632f745c59116100715780632f745c591461018d5780634f6ccce7146101bd5780636352211e146101ed57806370a082311461021d57806395d89b411461024d578063d85d3d271461026b576100b4565b806301ffc9a7146100b957806306fdde03146100e9578063095ea7b31461010757806318160ddd1461012357806323b872dd146101415780632771203d1461015d575b600080fd5b6100d360048036038101906100ce9190611333565b610287565b6040516100e091906114e5565b60405180910390f35b6100f1610439565b6040516100fe9190611500565b60405180910390f35b610121600480360381019061011c91906112f3565b6104cb565b005b61012b610655565b6040516101389190611562565b60405180910390f35b61015b600480360381019061015691906112a0565b610662565b005b610177600480360381019061017291906113a9565b610672565b6040516101849190611500565b60405180910390f35b6101a760048036038101906101a291906112f3565b61071e565b6040516101b49190611562565b60405180910390f35b6101d760048036038101906101d291906113a9565b6107ce565b6040516101e49190611562565b60405180910390f35b610207600480360381019061020291906113a9565b61083f565b60405161021491906114ca565b60405180910390f35b61023760048036038101906102329190611273565b6108e8565b6040516102449190611562565b60405180910390f35b610255610997565b6040516102629190611500565b60405180910390f35b61028560048036038101906102809190611360565b610a29565b005b60007f01ffc9a7000000000000000000000000000000000000000000000000000000007bffffffffffffffffffffffffffffffffffffffffffffffffffffffff1916827bffffffffffffffffffffffffffffffffffffffffffffffffffffffff1916148061035257507f304ad1f2000000000000000000000000000000000000000000000000000000007bffffffffffffffffffffffffffffffffffffffffffffffffffffffff1916827bffffffffffffffffffffffffffffffffffffffffffffffffffffffff1916145b806103ba57507f780e9d63000000000000000000000000000000000000000000000000000000007bffffffffffffffffffffffffffffffffffffffffffffffffffffffff1916827bffffffffffffffffffffffffffffffffffffffffffffffffffffffff1916145b8061042257507f93254542000000000000000000000000000000000000000000000000000000007bffffffffffffffffffffffffffffffffffffffffffffffffffffffff1916827bffffffffffffffffffffffffffffffffffffffffffffffffffffffff1916145b80610432575061043182610b23565b5b9050919050565b6060600080546104489061173a565b80601f01602080910402602001604051908101604052809291908181526020018280546104749061173a565b80156104c15780601f10610496576101008083540402835291602001916104c1565b820191906000526020600020905b8154815290600101906020018083116104a457829003601f168201915b5050505050905090565b60006104d68261083f565b90508073ffffffffffffffffffffffffffffffffffffffff168373ffffffffffffffffffffffffffffffffffffffff16141561053e576040517fcde4871900000000000000000000000000000000000000000000000000000000815260040160405180910390fd5b8073ffffffffffffffffffffffffffffffffffffffff163373ffffffffffffffffffffffffffffffffffffffff16146105a3576040517f6e6381ed00000000000000000000000000000000000000000000000000000000815260040160405180910390fd5b826004600084815260200190815260200160002060006101000a81548173ffffffffffffffffffffffffffffffffffffffff021916908373ffffffffffffffffffffffffffffffffffffffff160217905550818373ffffffffffffffffffffffffffffffffffffffff168273ffffffffffffffffffffffffffffffffffffffff167f8c5be1e5ebec7d5bd14f71427d1e84f3dd0314c0f7b2291e5b200ac8c7c3b92560405160405180910390a4505050565b6000600580549050905090565b61066d838383610b8d565b505050565b6009818154811061068257600080fd5b90600052602060002001600091509050805461069d9061173a565b80601f01602080910402602001604051908101604052809291908181526020018280546106c99061173a565b80156107165780601f106106eb57610100808354040283529160200191610716565b820191906000526020600020905b8154815290600101906020018083116106f957829003601f168201915b505050505081565b6000610729836108e8565b821061076a576040517f08c379a000000000000000000000000000000000000000000000000000000000815260040161076190611542565b60405180910390fd5b600760008473ffffffffffffffffffffffffffffffffffffffff1673ffffffffffffffffffffffffffffffffffffffff16815260200190815260200160002082815481106107bb576107ba611844565b5b9060005260206000200154905092915050565b60006107d8610655565b8210610819576040517f08c379a000000000000000000000000000000000000000000000000000000000815260040161081090611522565b60405180910390fd5b6005828154811061082d5761082c611844565b5b90600052602060002001549050919050565b6000806002600084815260200190815260200160002060009054906101000a900473ffffffffffffffffffffffffffffffffffffffff169050600073ffffffffffffffffffffffffffffffffffffffff168173ffffffffffffffffffffffffffffffffffffffff1614156108df576040517fe945b36300000000000000000000000000000000000000000000000000000000815260040160405180910390fd5b80915050919050565b60008073ffffffffffffffffffffffffffffffffffffffff168273ffffffffffffffffffffffffffffffffffffffff161415610950576040517fe945b36300000000000000000000000000000000000000000000000000000000815260040160405180910390fd5b600360008373ffffffffffffffffffffffffffffffffffffffff1673ffffffffffffffffffffffffffffffffffffffff168152602001908152602001600020549050919050565b6060600180546109a69061173a565b80601f01602080910402602001604051908101604052809291908181526020018280546109d29061173a565b8015610a1f5780601f106109f457610100808354040283529160200191610a1f565b820191906000526020600020905b815481529060010190602001808311610a0257829003601f168201915b5050505050905090565b600a81604051610a3991906114b3565b908152602001604051809103902060009054906101000a900460ff1615610a8c576040517fa518827f00000000000000000000000000000000000000000000000000000000815260040160405180910390fd5b600981908060018154018082558091505060019003906000526020600020016000909190919091509080519060200190610ac7929190611121565b5060006001600980549050610adc9190611650565b9050610ae83382610dec565b6001600a83604051610afa91906114b3565b908152602001604051809103902060006101000a81548160ff0219169083151502179055505050565b60007f01ffc9a7000000000000000000000000000000000000000000000000000000007bffffffffffffffffffffffffffffffffffffffffffffffffffffffff1916827bffffffffffffffffffffffffffffffffffffffffffffffffffffffff1916149050919050565b600073ffffffffffffffffffffffffffffffffffffffff168273ffffffffffffffffffffffffffffffffffffffff161415610bf4576040517fedc5271400000000000000000000000000000000000000000000000000000000815260040160405180910390fd5b8273ffffffffffffffffffffffffffffffffffffffff166002600083815260200190815260200160002060009054906101000a900473ffffffffffffffffffffffffffffffffffffffff1673ffffffffffffffffffffffffffffffffffffffff1614610c8c576040517f6e6381ed00000000000000000000000000000000000000000000000000000000815260040160405180910390fd5b6001600360008573ffffffffffffffffffffffffffffffffffffffff1673ffffffffffffffffffffffffffffffffffffffff1681526020019081526020016000206000828254610cdc9190611650565b925050819055506001600360008473ffffffffffffffffffffffffffffffffffffffff1673ffffffffffffffffffffffffffffffffffffffff1681526020019081526020016000206000828254610d3391906115fa565b92505081905550816002600083815260200190815260200160002060006101000a81548173ffffffffffffffffffffffffffffffffffffffff021916908373ffffffffffffffffffffffffffffffffffffffff160217905550808273ffffffffffffffffffffffffffffffffffffffff168473ffffffffffffffffffffffffffffffffffffffff167fddf252ad1be2c89b69c2b068fc378daa952ba7f163c4a11628f55a4df523b3ef60405160405180910390a4505050565b610df68282610e0d565b610dff81611014565b610e09828261105d565b5050565b600073ffffffffffffffffffffffffffffffffffffffff168273ffffffffffffffffffffffffffffffffffffffff161415610e74576040517fedc5271400000000000000000000000000000000000000000000000000000000815260040160405180910390fd5b600073ffffffffffffffffffffffffffffffffffffffff166002600083815260200190815260200160002060009054906101000a900473ffffffffffffffffffffffffffffffffffffffff1673ffffffffffffffffffffffffffffffffffffffff1614610f0d576040517f8599843600000000000000000000000000000000000000000000000000000000815260040160405180910390fd5b816002600083815260200190815260200160002060006101000a81548173ffffffffffffffffffffffffffffffffffffffff021916908373ffffffffffffffffffffffffffffffffffffffff160217905550600360008373ffffffffffffffffffffffffffffffffffffffff1673ffffffffffffffffffffffffffffffffffffffff1681526020019081526020016000206000815480929190610faf9061179d565b9190505550808273ffffffffffffffffffffffffffffffffffffffff16600073ffffffffffffffffffffffffffffffffffffffff167fddf252ad1be2c89b69c2b068fc378daa952ba7f163c4a11628f55a4df523b3ef60405160405180910390a45050565b6005805490506006600083815260200190815260200160002081905550600581908060018154018082558091505060019003906000526020600020016000909190919091505550565b600760008373ffffffffffffffffffffffffffffffffffffffff1673ffffffffffffffffffffffffffffffffffffffff168152602001908152602001600020805490506008600083815260200190815260200160002081905550600760008373ffffffffffffffffffffffffffffffffffffffff1673ffffffffffffffffffffffffffffffffffffffff1681526020019081526020016000208190806001815401808255809150506001900390600052602060002001600090919091909150555050565b82805461112d9061173a565b90600052602060002090601f01602090048101928261114f5760008555611196565b82601f1061116857805160ff1916838001178555611196565b82800160010185558215611196579182015b8281111561119557825182559160200191906001019061117a565b5b5090506111a391906111a7565b5090565b5b808211156111c05760008160009055506001016111a8565b5090565b60006111d76111d2846115a2565b61157d565b9050828152602081018484840111156111f3576111f26118a7565b5b6111fe8482856116f8565b509392505050565b60008135905061121581611919565b92915050565b60008135905061122a81611930565b92915050565b600082601f830112611245576112446118a2565b5b81356112558482602086016111c4565b91505092915050565b60008135905061126d81611947565b92915050565b600060208284031215611289576112886118b1565b5b600061129784828501611206565b91505092915050565b6000806000606084860312156112b9576112b86118b1565b5b60006112c786828701611206565b93505060206112d886828701611206565b92505060406112e98682870161125e565b9150509250925092565b6000806040838503121561130a576113096118b1565b5b600061131885828601611206565b92505060206113298582860161125e565b9150509250929050565b600060208284031215611349576113486118b1565b5b60006113578482850161121b565b91505092915050565b600060208284031215611376576113756118b1565b5b600082013567ffffffffffffffff811115611394576113936118ac565b5b6113a084828501611230565b91505092915050565b6000602082840312156113bf576113be6118b1565b5b60006113cd8482850161125e565b91505092915050565b6113df81611684565b82525050565b6113ee81611696565b82525050565b60006113ff826115d3565b61140981856115de565b9350611419818560208601611707565b611422816118b6565b840191505092915050565b6000611438826115d3565b61144281856115ef565b9350611452818560208601611707565b80840191505092915050565b600061146b601e836115de565b9150611476826118c7565b602082019050919050565b600061148e601d836115de565b9150611499826118f0565b602082019050919050565b6114ad816116ee565b82525050565b60006114bf828461142d565b915081905092915050565b60006020820190506114df60008301846113d6565b92915050565b60006020820190506114fa60008301846113e5565b92915050565b6000602082019050818103600083015261151a81846113f4565b905092915050565b6000602082019050818103600083015261153b8161145e565b9050919050565b6000602082019050818103600083015261155b81611481565b9050919050565b600060208201905061157760008301846114a4565b92915050565b6000611587611598565b9050611593828261176c565b919050565b6000604051905090565b600067ffffffffffffffff8211156115bd576115bc611873565b5b6115c6826118b6565b9050602081019050919050565b600081519050919050565b600082825260208201905092915050565b600081905092915050565b6000611605826116ee565b9150611610836116ee565b9250827fffffffffffffffffffffffffffffffffffffffffffffffffffffffffffffffff03821115611645576116446117e6565b5b828201905092915050565b600061165b826116ee565b9150611666836116ee565b925082821015611679576116786117e6565b5b828203905092915050565b600061168f826116ce565b9050919050565b60008115159050919050565b60007fffffffff0000000000000000000000000000000000000000000000000000000082169050919050565b600073ffffffffffffffffffffffffffffffffffffffff82169050919050565b6000819050919050565b82818337600083830152505050565b60005b8381101561172557808201518184015260208101905061170a565b83811115611734576000848401525b50505050565b6000600282049050600182168061175257607f821691505b6020821081141561176657611765611815565b5b50919050565b611775826118b6565b810181811067ffffffffffffffff8211171561179457611793611873565b5b80604052505050565b60006117a8826116ee565b91507fffffffffffffffffffffffffffffffffffffffffffffffffffffffffffffffff8214156117db576117da6117e6565b5b600182019050919050565b7f4e487b7100000000000000000000000000000000000000000000000000000000600052601160045260246000fd5b7f4e487b7100000000000000000000000000000000000000000000000000000000600052602260045260246000fd5b7f4e487b7100000000000000000000000000000000000000000000000000000000600052603260045260246000fd5b7f4e487b7100000000000000000000000000000000000000000000000000000000600052604160045260246000fd5b600080fd5b600080fd5b600080fd5b600080fd5b6000601f19601f8301169050919050565b7f676c6f62616c20696e646578206973206f7574206f6620626f756e6473210000600082015250565b7f6f776e657220696e646578206973206f7574206f6620626f756e647321000000600082015250565b61192281611684565b811461192d57600080fd5b50565b611939816116a2565b811461194457600080fd5b50565b611950816116ee565b811461195b57600080fd5b5056fea2646970667358221220dd06e81846af61ba12f20e7944e91672883a5d05d877f7b272498b9c09b58ad064736f6c63430008070033",
  "linkReferences": {},
  "deployedLinkReferences": {}
}