{
  "contractName": "ERC721",
  "abi": [
    {
      "inputs": [],
      "name": "ERC721__ADDRESS_ZERO",
      "type": "error"
    },
    {
      "inputs": [],
      "name": "ERC721__INVALID_USER",
      "type": "error"
    },
    {
      "inputs": [],
      "name": "ERC721__NOT_OWNER",
      "type": "error"
    },
    {
      "inputs": [],
      "name": "ERC721__SAME_ADDRESS",
      "type": "error"
    },
    {
      "anonymous": false,
      "inputs": [
        {
          "indexed": true,
          "internalType": "address",
          "name": "_owner",
          "type": "address"
        },
        {
          "indexed": true,
          "internalType": "address",
          "name": "_approved",
          "type": "address"
        },
        {
          "indexed": true,
          "internalType": "uint256",
          "name": "_tokenId",
          "type": "uint256"
        }
      ],
      "name": "Approval",
      "type": "event"
    },
    {
      "anonymous": false,
      "inputs": [
        {
          "indexed": true,
          "internalType": "address",
          "name": "_from",
          "type": "address"
        },
        {
          "indexed": true,
          "internalType": "address",
          "name": "_to",
          "type": "address"
        },
        {
          "indexed": true,
          "internalType": "uint256",
          "name": "_tokenId",
          "type": "uint256"
        }
      ],
      "name": "Transfer",
      "type": "event"
    },
    {
      "inputs": [
        {
          "internalType": "address",
          "name": "_owner",
          "type": "address"
        }
      ],
      "name": "balanceOf",
      "outputs": [
        {
          "internalType": "uint256",
          "name": "",
          "type": "uint256"
        }
      ],
      "stateMutability": "view",
      "type": "function"
    },
    {
      "inputs": [
        {
          "internalType": "uint256",
          "name": "_tokenId",
          "type": "uint256"
        }
      ],
      "name": "ownerOf",
      "outputs": [
        {
          "internalType": "address",
          "name": "",
          "type": "address"
        }
      ],
      "stateMutability": "view",
      "type": "function"
    },
    {
      "inputs": [
        {
          "internalType": "address",
          "name": "_from",
          "type": "address"
        },
        {
          "internalType": "address",
          "name": "_to",
          "type": "address"
        },
        {
          "internalType": "uint256",
          "name": "tokenId",
          "type": "uint256"
        }
      ],
      "name": "transferFrom",
      "outputs": [],
      "stateMutability": "nonpayable",
      "type": "function"
    },
    {
      "inputs": [
        {
          "internalType": "address",
          "name": "_to",
          "type": "address"
        },
        {
          "internalType": "uint256",
          "name": "_tokenId",
          "type": "uint256"
        }
      ],
      "name": "approve",
      "outputs": [],
      "stateMutability": "nonpayable",
      "type": "function"
    }
  ],
  "bytecode": "0x608060405234801561001057600080fd5b506108fa806100206000396000f3fe608060405234801561001057600080fd5b506004361061004c5760003560e01c8063095ea7b31461005157806323b872dd1461006d5780636352211e1461008957806370a08231146100b9575b600080fd5b61006b600480360381019061006691906106ca565b6100e9565b005b6100876004803603810190610082919061070a565b610272565b005b6100a3600480360381019061009e919061075d565b610282565b6040516100b09190610799565b60405180910390f35b6100d360048036038101906100ce91906107b4565b610329565b6040516100e091906107f0565b60405180910390f35b60006100f482610282565b90508073ffffffffffffffffffffffffffffffffffffffff168373ffffffffffffffffffffffffffffffffffffffff160361015b576040517fcde4871900000000000000000000000000000000000000000000000000000000815260040160405180910390fd5b8073ffffffffffffffffffffffffffffffffffffffff163373ffffffffffffffffffffffffffffffffffffffff16146101c0576040517f6e6381ed00000000000000000000000000000000000000000000000000000000815260040160405180910390fd5b826002600084815260200190815260200160002060006101000a81548173ffffffffffffffffffffffffffffffffffffffff021916908373ffffffffffffffffffffffffffffffffffffffff160217905550818373ffffffffffffffffffffffffffffffffffffffff168273ffffffffffffffffffffffffffffffffffffffff167f8c5be1e5ebec7d5bd14f71427d1e84f3dd0314c0f7b2291e5b200ac8c7c3b92560405160405180910390a4505050565b61027d8383836103d7565b505050565b60008060008084815260200190815260200160002060009054906101000a900473ffffffffffffffffffffffffffffffffffffffff169050600073ffffffffffffffffffffffffffffffffffffffff168173ffffffffffffffffffffffffffffffffffffffff1603610320576040517fe945b36300000000000000000000000000000000000000000000000000000000815260040160405180910390fd5b80915050919050565b60008073ffffffffffffffffffffffffffffffffffffffff168273ffffffffffffffffffffffffffffffffffffffff1603610390576040517fe945b36300000000000000000000000000000000000000000000000000000000815260040160405180910390fd5b600160008373ffffffffffffffffffffffffffffffffffffffff1673ffffffffffffffffffffffffffffffffffffffff168152602001908152602001600020549050919050565b600073ffffffffffffffffffffffffffffffffffffffff168273ffffffffffffffffffffffffffffffffffffffff160361043d576040517fedc5271400000000000000000000000000000000000000000000000000000000815260040160405180910390fd5b8273ffffffffffffffffffffffffffffffffffffffff1660008083815260200190815260200160002060009054906101000a900473ffffffffffffffffffffffffffffffffffffffff1673ffffffffffffffffffffffffffffffffffffffff16146104d4576040517f6e6381ed00000000000000000000000000000000000000000000000000000000815260040160405180910390fd5b60018060008573ffffffffffffffffffffffffffffffffffffffff1673ffffffffffffffffffffffffffffffffffffffff1681526020019081526020016000206000828254610523919061083a565b9250508190555060018060008473ffffffffffffffffffffffffffffffffffffffff1673ffffffffffffffffffffffffffffffffffffffff1681526020019081526020016000206000828254610579919061086e565b925050819055508160008083815260200190815260200160002060006101000a81548173ffffffffffffffffffffffffffffffffffffffff021916908373ffffffffffffffffffffffffffffffffffffffff160217905550808273ffffffffffffffffffffffffffffffffffffffff168473ffffffffffffffffffffffffffffffffffffffff167fddf252ad1be2c89b69c2b068fc378daa952ba7f163c4a11628f55a4df523b3ef60405160405180910390a4505050565b600080fd5b600073ffffffffffffffffffffffffffffffffffffffff82169050919050565b600061066182610636565b9050919050565b61067181610656565b811461067c57600080fd5b50565b60008135905061068e81610668565b92915050565b6000819050919050565b6106a781610694565b81146106b257600080fd5b50565b6000813590506106c48161069e565b92915050565b600080604083850312156106e1576106e0610631565b5b60006106ef8582860161067f565b9250506020610700858286016106b5565b9150509250929050565b60008060006060848603121561072357610722610631565b5b60006107318682870161067f565b93505060206107428682870161067f565b9250506040610753868287016106b5565b9150509250925092565b60006020828403121561077357610772610631565b5b6000610781848285016106b5565b91505092915050565b61079381610656565b82525050565b60006020820190506107ae600083018461078a565b92915050565b6000602082840312156107ca576107c9610631565b5b60006107d88482850161067f565b91505092915050565b6107ea81610694565b82525050565b600060208201905061080560008301846107e1565b92915050565b7f4e487b7100000000000000000000000000000000000000000000000000000000600052601160045260246000fd5b600061084582610694565b915061085083610694565b9250828210156108635761086261080b565b5b828203905092915050565b600061087982610694565b915061088483610694565b9250827fffffffffffffffffffffffffffffffffffffffffffffffffffffffffffffffff038211156108b9576108b861080b565b5b82820190509291505056fea26469706673582212206d88a7fc401c7421a93e024a23bbb657937ae6a15dff7bc36ef315d5656f7b5264736f6c634300080f0033",
  "immutableReferences": {},
  "source": "// SPDX-License-Identifier: MIT\r\npragma solidity ^0.8.0;\r\n\r\nerror ERC721__ADDRESS_ZERO();\r\nerror ERC721__ALREADY_MINTED();\r\nerror ERC721__INVALID_USER();\r\nerror ERC721__NOT_OWNER();\r\nerror ERC721__SAME_ADDRESS();\r\n\r\nimport \"./interfaces/IERC721.sol\";\r\n\r\ncontract ERC721 is IERC721 {\r\n    // STATE VARIABLE\r\n\r\n    mapping(uint256 => address) private _tokenOwner;\r\n    mapping(address => uint256) private _ownedTokenCount;\r\n\r\n    mapping(uint256 => address) private _tokenApproval;\r\n\r\n    // FUNCTIONS\r\n\r\n    function balanceOf(address _owner) public view returns (uint256) {\r\n        if (_owner == address(0)) revert ERC721__INVALID_USER();\r\n\r\n        return _ownedTokenCount[_owner];\r\n    }\r\n\r\n    function ownerOf(uint256 _tokenId) public view returns (address) {\r\n        address owner = _tokenOwner[_tokenId];\r\n        if (owner == address(0)) revert ERC721__INVALID_USER();\r\n\r\n        return owner;\r\n    }\r\n\r\n    function _mint(address to, uint256 tokenId) internal virtual {\r\n        if (to == address(0)) revert ERC721__ADDRESS_ZERO();\r\n\r\n        if (_tokenOwner[tokenId] != address(0)) {\r\n            revert ERC721__ALREADY_MINTED();\r\n        }\r\n\r\n        _tokenOwner[tokenId] = to;\r\n        _ownedTokenCount[to]++;\r\n        emit Transfer(address(0), to, tokenId);\r\n    }\r\n\r\n    function _transferFrom(\r\n        address _from,\r\n        address _to,\r\n        uint256 tokenId\r\n    ) internal {\r\n        if (_to == address(0)) revert ERC721__ADDRESS_ZERO();\r\n\r\n        if (_tokenOwner[tokenId] != _from) revert ERC721__NOT_OWNER();\r\n\r\n        _ownedTokenCount[_from] -= 1;\r\n        _ownedTokenCount[_to] += 1;\r\n\r\n        _tokenOwner[tokenId] = _to;\r\n\r\n        emit Transfer(_from, _to, tokenId);\r\n    }\r\n\r\n    function transferFrom(\r\n        address _from,\r\n        address _to,\r\n        uint256 tokenId\r\n    ) public {\r\n        _transferFrom(_from, _to, tokenId);\r\n    }\r\n\r\n    function approve(address _to, uint256 _tokenId) public {\r\n        address owner = ownerOf(_tokenId);\r\n\r\n        if (_to == owner) revert ERC721__SAME_ADDRESS();\r\n\r\n        if (msg.sender != owner) revert ERC721__NOT_OWNER();\r\n\r\n        _tokenApproval[_tokenId] = _to;\r\n\r\n        emit Approval(owner, _to, _tokenId);\r\n    }\r\n}\r\n",
  "sourcePath": "D:\\NON - PROGRAM FILES\\STUDY\\Course.io\\BLOCKCHAIN\\DEVELOPMENT\\nft-marketplace-starter-kit\\src\\contracts\\ERC721.sol",
  "compiler": {
    "name": "solc",
    "version": "0.8.15+commit.e14f2714.Emscripten.clang"
  },
  "schemaVersion": "3.4.3",
  "updatedAt": "2022-07-04T10:21:04.966Z",
  "devdoc": {
    "kind": "dev",
    "methods": {},
    "version": 1
  },
  "userdoc": {
    "kind": "user",
    "methods": {},
    "version": 1
  }
}