{
  "contractName": "ERC721",
  "abi": [
    {
      "inputs": [],
      "name": "ERC721__INVALID_USER",
      "type": "error"
    },
    {
      "anonymous": false,
      "inputs": [
        {
          "indexed": true,
          "internalType": "address",
          "name": "from",
          "type": "address"
        },
        {
          "indexed": true,
          "internalType": "address",
          "name": "to",
          "type": "address"
        },
        {
          "indexed": true,
          "internalType": "uint256",
          "name": "tokenId",
          "type": "uint256"
        }
      ],
      "name": "Transfer",
      "type": "event"
    },
    {
      "inputs": [
        {
          "internalType": "address",
          "name": "_owner",
          "type": "address"
        }
      ],
      "name": "balanceOf",
      "outputs": [
        {
          "internalType": "uint256",
          "name": "",
          "type": "uint256"
        }
      ],
      "stateMutability": "view",
      "type": "function"
    },
    {
      "inputs": [
        {
          "internalType": "uint256",
          "name": "_tokenId",
          "type": "uint256"
        }
      ],
      "name": "ownerOf",
      "outputs": [
        {
          "internalType": "address",
          "name": "",
          "type": "address"
        }
      ],
      "stateMutability": "view",
      "type": "function"
    }
  ],
  "bytecode": "0x608060405234801561001057600080fd5b5061036d806100206000396000f3fe608060405234801561001057600080fd5b50600436106100365760003560e01c80636352211e1461003b57806370a082311461006b575b600080fd5b6100556004803603810190610050919061022b565b61009b565b6040516100629190610299565b60405180910390f35b610085600480360381019061008091906102e0565b610142565b604051610092919061031c565b60405180910390f35b60008060008084815260200190815260200160002060009054906101000a900473ffffffffffffffffffffffffffffffffffffffff169050600073ffffffffffffffffffffffffffffffffffffffff168173ffffffffffffffffffffffffffffffffffffffff1603610139576040517fe945b36300000000000000000000000000000000000000000000000000000000815260040160405180910390fd5b80915050919050565b60008073ffffffffffffffffffffffffffffffffffffffff168273ffffffffffffffffffffffffffffffffffffffff16036101a9576040517fe945b36300000000000000000000000000000000000000000000000000000000815260040160405180910390fd5b600160008373ffffffffffffffffffffffffffffffffffffffff1673ffffffffffffffffffffffffffffffffffffffff168152602001908152602001600020549050919050565b600080fd5b6000819050919050565b610208816101f5565b811461021357600080fd5b50565b600081359050610225816101ff565b92915050565b600060208284031215610241576102406101f0565b5b600061024f84828501610216565b91505092915050565b600073ffffffffffffffffffffffffffffffffffffffff82169050919050565b600061028382610258565b9050919050565b61029381610278565b82525050565b60006020820190506102ae600083018461028a565b92915050565b6102bd81610278565b81146102c857600080fd5b50565b6000813590506102da816102b4565b92915050565b6000602082840312156102f6576102f56101f0565b5b6000610304848285016102cb565b91505092915050565b610316816101f5565b82525050565b6000602082019050610331600083018461030d565b9291505056fea264697066735822122081c0262eb728cb8c32499666bbcd13383193270a09ab4c3b2a73086ae329c7dc64736f6c634300080e0033",
  "immutableReferences": {},
  "source": "// SPDX-License-Identifier: MIT\r\npragma solidity ^0.8.0;\r\n\r\nerror ERC721__ADDRESS_ZERO();\r\nerror ERC721__ALREADY_MINTED();\r\nerror ERC721__INVALID_USER();\r\n\r\ncontract ERC721 {\r\n    // STATE VARIABLE\r\n\r\n    mapping(uint256 => address) private _tokenOwner;\r\n    mapping(address => uint256) private _ownedTokenCount;\r\n\r\n    // EVENTS\r\n    event Transfer(\r\n        address indexed from,\r\n        address indexed to,\r\n        uint256 indexed tokenId\r\n    );\r\n\r\n    // FUNCTIONS\r\n\r\n    function balanceOf(address _owner) public view returns (uint256) {\r\n        if (_owner == address(0)) revert ERC721__INVALID_USER();\r\n\r\n        return _ownedTokenCount[_owner];\r\n    }\r\n\r\n    function ownerOf(uint256 _tokenId) public view returns (address) {\r\n        address owner = _tokenOwner[_tokenId];\r\n        if (owner == address(0)) revert ERC721__INVALID_USER();\r\n\r\n        return owner;\r\n    }\r\n\r\n    function _mint(address to, uint256 tokenId) internal virtual {\r\n        if (to == address(0)) revert ERC721__ADDRESS_ZERO();\r\n\r\n        if (_tokenOwner[tokenId] != address(0)) {\r\n            revert ERC721__ALREADY_MINTED();\r\n        }\r\n\r\n        _tokenOwner[tokenId] = to;\r\n        _ownedTokenCount[to]++;\r\n        emit Transfer(address(0), to, tokenId);\r\n    }\r\n}\r\n",
  "sourcePath": "D:\\NON - PROGRAM FILES\\STUDY\\Course.io\\BLOCKCHAIN\\DEVELOPMENT\\nft-marketplace-starter-kit\\src\\contracts\\ERC721.sol",
  "compiler": {
    "name": "solc",
    "version": "0.8.14+commit.80d49f37.Emscripten.clang"
  },
  "schemaVersion": "3.4.3",
  "updatedAt": "2022-06-10T02:41:06.318Z",
  "devdoc": {
    "kind": "dev",
    "methods": {},
    "version": 1
  },
  "userdoc": {
    "kind": "user",
    "methods": {},
    "version": 1
  }
}