{
  "contractName": "Kryptobird",
  "abi": [
    {
      "inputs": [],
      "stateMutability": "nonpayable",
      "type": "constructor"
    },
    {
      "inputs": [],
      "name": "ERC721__ADDRESS_ZERO",
      "type": "error"
    },
    {
      "inputs": [],
      "name": "ERC721__ALREADY_MINTED",
      "type": "error"
    },
    {
      "inputs": [],
      "name": "Kryptobird__ALREADY_EXISTS",
      "type": "error"
    },
    {
      "anonymous": false,
      "inputs": [
        {
          "indexed": true,
          "internalType": "address",
          "name": "from",
          "type": "address"
        },
        {
          "indexed": true,
          "internalType": "address",
          "name": "to",
          "type": "address"
        },
        {
          "indexed": true,
          "internalType": "uint256",
          "name": "tokenId",
          "type": "uint256"
        }
      ],
      "name": "Transfer",
      "type": "event"
    },
    {
      "inputs": [],
      "name": "name",
      "outputs": [
        {
          "internalType": "string",
          "name": "",
          "type": "string"
        }
      ],
      "stateMutability": "view",
      "type": "function",
      "constant": true
    },
    {
      "inputs": [],
      "name": "symbol",
      "outputs": [
        {
          "internalType": "string",
          "name": "",
          "type": "string"
        }
      ],
      "stateMutability": "view",
      "type": "function",
      "constant": true
    },
    {
      "inputs": [
        {
          "internalType": "string",
          "name": "_krytoBird",
          "type": "string"
        }
      ],
      "name": "mint",
      "outputs": [],
      "stateMutability": "nonpayable",
      "type": "function"
    }
  ],
  "bytecode": "0x608060405234801561001057600080fd5b506040518060400160405280600a81526020017f4b727970746f42697264000000000000000000000000000000000000000000008152506040518060400160405280600381526020017f4b425a0000000000000000000000000000000000000000000000000000000000815250818181600090805190602001906100959291906100b6565b5080600190805190602001906100ac9291906100b6565b50505050506101b9565b8280546100c290610188565b90600052602060002090601f0160209004810192826100e4576000855561012b565b82601f106100fd57805160ff191683800117855561012b565b8280016001018555821561012b579182015b8281111561012a57825182559160200191906001019061010f565b5b509050610138919061013c565b5090565b5b8082111561015557600081600090555060010161013d565b5090565b7f4e487b7100000000000000000000000000000000000000000000000000000000600052602260045260246000fd5b600060028204905060018216806101a057607f821691505b6020821081036101b3576101b2610159565b5b50919050565b610950806101c86000396000f3fe608060405234801561001057600080fd5b50600436106100415760003560e01c806306fdde031461004657806395d89b4114610064578063d85d3d2714610082575b600080fd5b61004e61009e565b60405161005b91906105fe565b60405180910390f35b61006c610130565b60405161007991906105fe565b60405180910390f35b61009c60048036038101906100979190610769565b6101c2565b005b6060600080546100ad906107e1565b80601f01602080910402602001604051908101604052809291908181526020018280546100d9906107e1565b80156101265780601f106100fb57610100808354040283529160200191610126565b820191906000526020600020905b81548152906001019060200180831161010957829003601f168201915b5050505050905090565b60606001805461013f906107e1565b80601f016020809104026020016040519081016040528092919081815260200182805461016b906107e1565b80156101b85780601f1061018d576101008083540402835291602001916101b8565b820191906000526020600020905b81548152906001019060200180831161019b57829003601f168201915b5050505050905090565b6005816040516101d2919061084e565b908152602001604051809103902060009054906101000a900460ff1615610225576040517fd4f452c100000000000000000000000000000000000000000000000000000000815260040160405180910390fd5b6004819080600181540180825580915050600190039060005260206000200160009091909190915090805190602001906102609291906104c2565b5060006001600480549050610275919061089e565b905061028133826102bc565b6001600583604051610293919061084e565b908152602001604051809103902060006101000a81548160ff0219169083151502179055505050565b600073ffffffffffffffffffffffffffffffffffffffff168273ffffffffffffffffffffffffffffffffffffffff1603610322576040517fedc5271400000000000000000000000000000000000000000000000000000000815260040160405180910390fd5b600073ffffffffffffffffffffffffffffffffffffffff166002600083815260200190815260200160002060009054906101000a900473ffffffffffffffffffffffffffffffffffffffff1673ffffffffffffffffffffffffffffffffffffffff16146103bb576040517f8599843600000000000000000000000000000000000000000000000000000000815260040160405180910390fd5b816002600083815260200190815260200160002060006101000a81548173ffffffffffffffffffffffffffffffffffffffff021916908373ffffffffffffffffffffffffffffffffffffffff160217905550600360008373ffffffffffffffffffffffffffffffffffffffff1673ffffffffffffffffffffffffffffffffffffffff168152602001908152602001600020600081548092919061045d906108d2565b9190505550808273ffffffffffffffffffffffffffffffffffffffff16600073ffffffffffffffffffffffffffffffffffffffff167fddf252ad1be2c89b69c2b068fc378daa952ba7f163c4a11628f55a4df523b3ef60405160405180910390a45050565b8280546104ce906107e1565b90600052602060002090601f0160209004810192826104f05760008555610537565b82601f1061050957805160ff1916838001178555610537565b82800160010185558215610537579182015b8281111561053657825182559160200191906001019061051b565b5b5090506105449190610548565b5090565b5b80821115610561576000816000905550600101610549565b5090565b600081519050919050565b600082825260208201905092915050565b60005b8381101561059f578082015181840152602081019050610584565b838111156105ae576000848401525b50505050565b6000601f19601f8301169050919050565b60006105d082610565565b6105da8185610570565b93506105ea818560208601610581565b6105f3816105b4565b840191505092915050565b6000602082019050818103600083015261061881846105c5565b905092915050565b6000604051905090565b600080fd5b600080fd5b600080fd5b600080fd5b7f4e487b7100000000000000000000000000000000000000000000000000000000600052604160045260246000fd5b610676826105b4565b810181811067ffffffffffffffff821117156106955761069461063e565b5b80604052505050565b60006106a8610620565b90506106b4828261066d565b919050565b600067ffffffffffffffff8211156106d4576106d361063e565b5b6106dd826105b4565b9050602081019050919050565b82818337600083830152505050565b600061070c610707846106b9565b61069e565b90508281526020810184848401111561072857610727610639565b5b6107338482856106ea565b509392505050565b600082601f8301126107505761074f610634565b5b81356107608482602086016106f9565b91505092915050565b60006020828403121561077f5761077e61062a565b5b600082013567ffffffffffffffff81111561079d5761079c61062f565b5b6107a98482850161073b565b91505092915050565b7f4e487b7100000000000000000000000000000000000000000000000000000000600052602260045260246000fd5b600060028204905060018216806107f957607f821691505b60208210810361080c5761080b6107b2565b5b50919050565b600081905092915050565b600061082882610565565b6108328185610812565b9350610842818560208601610581565b80840191505092915050565b600061085a828461081d565b915081905092915050565b6000819050919050565b7f4e487b7100000000000000000000000000000000000000000000000000000000600052601160045260246000fd5b60006108a982610865565b91506108b483610865565b9250828210156108c7576108c661086f565b5b828203905092915050565b60006108dd82610865565b91507fffffffffffffffffffffffffffffffffffffffffffffffffffffffffffffffff820361090f5761090e61086f565b5b60018201905091905056fea2646970667358221220db9f3242ff40c6dca650558fcea0cbe278bedf50d96e580888700f1458a46a6964736f6c634300080e0033",
  "immutableReferences": {},
  "source": "// SPDX-License-Identifier: MIT\r\npragma solidity ^0.8.0;\r\n\r\nimport \"./ERC721Connector.sol\";\r\n\r\nerror Kryptobird__ALREADY_EXISTS();\r\n\r\ncontract Kryptobird is ERC721Connector {\r\n    // VARIABLES\r\n    string[] private krytoBird;\r\n    mapping(string => bool) krytoBirdExists;\r\n\r\n    // EVENTS\r\n\r\n    // FUNCTIONS\r\n    function mint(string memory _krytoBird) public {\r\n        if (krytoBirdExists[_krytoBird]) revert Kryptobird__ALREADY_EXISTS();\r\n\r\n        krytoBird.push(_krytoBird);\r\n        uint256 _id = krytoBird.length - 1;\r\n\r\n        _mint(msg.sender, _id);\r\n        krytoBirdExists[_krytoBird] = true;\r\n    }\r\n\r\n    constructor() ERC721Connector(\"KryptoBird\", \"KBZ\") {}\r\n}\r\n",
  "sourcePath": "D:\\NON - PROGRAM FILES\\STUDY\\Course.io\\BLOCKCHAIN\\DEVELOPMENT\\nft-marketplace-starter-kit\\src\\contracts\\Kryptobird.sol",
  "compiler": {
    "name": "solc",
    "version": "0.8.14+commit.80d49f37.Emscripten.clang"
  },
  "schemaVersion": "3.4.3",
  "updatedAt": "2022-06-07T14:35:46.639Z",
  "networkType": "ethereum",
  "devdoc": {
    "kind": "dev",
    "methods": {},
    "version": 1
  },
  "userdoc": {
    "kind": "user",
    "methods": {},
    "version": 1
  }
}