{
  "contractName": "Kryptobird",
  "abi": [
    {
      "inputs": [],
      "stateMutability": "nonpayable",
      "type": "constructor"
    },
    {
      "inputs": [],
      "name": "ERC721Enumerable__Index_OutBound",
      "type": "error"
    },
    {
      "inputs": [],
      "name": "ERC721Enumerable__Owner_Index_OutBound",
      "type": "error"
    },
    {
      "inputs": [],
      "name": "ERC721__ADDRESS_ZERO",
      "type": "error"
    },
    {
      "inputs": [],
      "name": "ERC721__ALREADY_MINTED",
      "type": "error"
    },
    {
      "inputs": [],
      "name": "ERC721__INVALID_USER",
      "type": "error"
    },
    {
      "inputs": [],
      "name": "Kryptobird__ALREADY_EXISTS",
      "type": "error"
    },
    {
      "anonymous": false,
      "inputs": [
        {
          "indexed": true,
          "internalType": "address",
          "name": "from",
          "type": "address"
        },
        {
          "indexed": true,
          "internalType": "address",
          "name": "to",
          "type": "address"
        },
        {
          "indexed": true,
          "internalType": "uint256",
          "name": "tokenId",
          "type": "uint256"
        }
      ],
      "name": "Transfer",
      "type": "event"
    },
    {
      "inputs": [
        {
          "internalType": "uint256",
          "name": "index",
          "type": "uint256"
        }
      ],
      "name": "_tokekenByIndex",
      "outputs": [
        {
          "internalType": "uint256",
          "name": "",
          "type": "uint256"
        }
      ],
      "stateMutability": "view",
      "type": "function",
      "constant": true
    },
    {
      "inputs": [
        {
          "internalType": "address",
          "name": "owner",
          "type": "address"
        },
        {
          "internalType": "uint256",
          "name": "index",
          "type": "uint256"
        }
      ],
      "name": "_tokenOfOwnerByIndex",
      "outputs": [
        {
          "internalType": "uint256",
          "name": "",
          "type": "uint256"
        }
      ],
      "stateMutability": "view",
      "type": "function",
      "constant": true
    },
    {
      "inputs": [],
      "name": "_totalSupply",
      "outputs": [
        {
          "internalType": "uint256",
          "name": "",
          "type": "uint256"
        }
      ],
      "stateMutability": "view",
      "type": "function",
      "constant": true
    },
    {
      "inputs": [
        {
          "internalType": "address",
          "name": "_owner",
          "type": "address"
        }
      ],
      "name": "balanceOf",
      "outputs": [
        {
          "internalType": "uint256",
          "name": "",
          "type": "uint256"
        }
      ],
      "stateMutability": "view",
      "type": "function",
      "constant": true
    },
    {
      "inputs": [],
      "name": "name",
      "outputs": [
        {
          "internalType": "string",
          "name": "",
          "type": "string"
        }
      ],
      "stateMutability": "view",
      "type": "function",
      "constant": true
    },
    {
      "inputs": [
        {
          "internalType": "uint256",
          "name": "_tokenId",
          "type": "uint256"
        }
      ],
      "name": "ownerOf",
      "outputs": [
        {
          "internalType": "address",
          "name": "",
          "type": "address"
        }
      ],
      "stateMutability": "view",
      "type": "function",
      "constant": true
    },
    {
      "inputs": [],
      "name": "symbol",
      "outputs": [
        {
          "internalType": "string",
          "name": "",
          "type": "string"
        }
      ],
      "stateMutability": "view",
      "type": "function",
      "constant": true
    },
    {
      "inputs": [
        {
          "internalType": "string",
          "name": "_krytoBird",
          "type": "string"
        }
      ],
      "name": "mint",
      "outputs": [],
      "stateMutability": "nonpayable",
      "type": "function"
    }
  ],
  "bytecode": "0x60806040523480156200001157600080fd5b506040518060400160405280600a81526020017f4b727970746f42697264000000000000000000000000000000000000000000008152506040518060400160405280600381526020017f4b425a00000000000000000000000000000000000000000000000000000000008152508181816000908051906020019062000098929190620000bc565b508060019080519060200190620000b1929190620000bc565b5050505050620001d0565b828054620000ca906200019b565b90600052602060002090601f016020900481019282620000ee57600085556200013a565b82601f106200010957805160ff19168380011785556200013a565b828001600101855582156200013a579182015b82811115620001395782518255916020019190600101906200011c565b5b5090506200014991906200014d565b5090565b5b80821115620001685760008160009055506001016200014e565b5090565b7f4e487b7100000000000000000000000000000000000000000000000000000000600052602260045260246000fd5b60006002820490506001821680620001b457607f821691505b602082108103620001ca57620001c96200016c565b5b50919050565b610fba80620001e06000396000f3fe608060405234801561001057600080fd5b50600436106100885760003560e01c80636352211e1161005b5780636352211e1461012957806370a082311461015957806395d89b4114610189578063d85d3d27146101a757610088565b806306fdde031461008d57806327071f6a146100ab5780633eaaf86b146100db57806340070018146100f9575b600080fd5b6100956101c3565b6040516100a29190610ac1565b60405180910390f35b6100c560048036038101906100c09190610b8b565b610255565b6040516100d29190610bda565b60405180910390f35b6100e36102fc565b6040516100f09190610bda565b60405180910390f35b610113600480360381019061010e9190610bf5565b610309565b6040516101209190610bda565b60405180910390f35b610143600480360381019061013e9190610bf5565b61036f565b6040516101509190610c31565b60405180910390f35b610173600480360381019061016e9190610c4c565b610417565b6040516101809190610bda565b60405180910390f35b6101916104c5565b60405161019e9190610ac1565b60405180910390f35b6101c160048036038101906101bc9190610dae565b610557565b005b6060600080546101d290610e26565b80601f01602080910402602001604051908101604052809291908181526020018280546101fe90610e26565b801561024b5780601f106102205761010080835404028352916020019161024b565b820191906000526020600020905b81548152906001019060200180831161022e57829003601f168201915b5050505050905090565b600061026083610417565b8210610298576040517f0cd0660d00000000000000000000000000000000000000000000000000000000815260040160405180910390fd5b600660008473ffffffffffffffffffffffffffffffffffffffff1673ffffffffffffffffffffffffffffffffffffffff16815260200190815260200160002082815481106102e9576102e8610e57565b5b9060005260206000200154905092915050565b6000600480549050905090565b60006004805490508210610349576040517fb24c98a900000000000000000000000000000000000000000000000000000000815260040160405180910390fd5b6004828154811061035d5761035c610e57565b5b90600052602060002001549050919050565b6000806002600084815260200190815260200160002060009054906101000a900473ffffffffffffffffffffffffffffffffffffffff169050600073ffffffffffffffffffffffffffffffffffffffff168173ffffffffffffffffffffffffffffffffffffffff160361040e576040517fe945b36300000000000000000000000000000000000000000000000000000000815260040160405180910390fd5b80915050919050565b60008073ffffffffffffffffffffffffffffffffffffffff168273ffffffffffffffffffffffffffffffffffffffff160361047e576040517fe945b36300000000000000000000000000000000000000000000000000000000815260040160405180910390fd5b600360008373ffffffffffffffffffffffffffffffffffffffff1673ffffffffffffffffffffffffffffffffffffffff168152602001908152602001600020549050919050565b6060600180546104d490610e26565b80601f016020809104026020016040519081016040528092919081815260200182805461050090610e26565b801561054d5780601f106105225761010080835404028352916020019161054d565b820191906000526020600020905b81548152906001019060200180831161053057829003601f168201915b5050505050905090565b6009816040516105679190610ec2565b908152602001604051809103902060009054906101000a900460ff16156105ba576040517fd4f452c100000000000000000000000000000000000000000000000000000000815260040160405180910390fd5b6008819080600181540180825580915050600190039060005260206000200160009091909190915090805190602001906105f5929190610985565b506000600160088054905061060a9190610f08565b90506106163382610651565b60016009836040516106289190610ec2565b908152602001604051809103902060006101000a81548160ff0219169083151502179055505050565b61065b8282610672565b61066481610878565b61066e82826108c1565b5050565b600073ffffffffffffffffffffffffffffffffffffffff168273ffffffffffffffffffffffffffffffffffffffff16036106d8576040517fedc5271400000000000000000000000000000000000000000000000000000000815260040160405180910390fd5b600073ffffffffffffffffffffffffffffffffffffffff166002600083815260200190815260200160002060009054906101000a900473ffffffffffffffffffffffffffffffffffffffff1673ffffffffffffffffffffffffffffffffffffffff1614610771576040517f8599843600000000000000000000000000000000000000000000000000000000815260040160405180910390fd5b816002600083815260200190815260200160002060006101000a81548173ffffffffffffffffffffffffffffffffffffffff021916908373ffffffffffffffffffffffffffffffffffffffff160217905550600360008373ffffffffffffffffffffffffffffffffffffffff1673ffffffffffffffffffffffffffffffffffffffff168152602001908152602001600020600081548092919061081390610f3c565b9190505550808273ffffffffffffffffffffffffffffffffffffffff16600073ffffffffffffffffffffffffffffffffffffffff167fddf252ad1be2c89b69c2b068fc378daa952ba7f163c4a11628f55a4df523b3ef60405160405180910390a45050565b6004805490506005600083815260200190815260200160002081905550600481908060018154018082558091505060019003906000526020600020016000909190919091505550565b600660008373ffffffffffffffffffffffffffffffffffffffff1673ffffffffffffffffffffffffffffffffffffffff168152602001908152602001600020805490506007600083815260200190815260200160002081905550600660008373ffffffffffffffffffffffffffffffffffffffff1673ffffffffffffffffffffffffffffffffffffffff1681526020019081526020016000208190806001815401808255809150506001900390600052602060002001600090919091909150555050565b82805461099190610e26565b90600052602060002090601f0160209004810192826109b357600085556109fa565b82601f106109cc57805160ff19168380011785556109fa565b828001600101855582156109fa579182015b828111156109f95782518255916020019190600101906109de565b5b509050610a079190610a0b565b5090565b5b80821115610a24576000816000905550600101610a0c565b5090565b600081519050919050565b600082825260208201905092915050565b60005b83811015610a62578082015181840152602081019050610a47565b83811115610a71576000848401525b50505050565b6000601f19601f8301169050919050565b6000610a9382610a28565b610a9d8185610a33565b9350610aad818560208601610a44565b610ab681610a77565b840191505092915050565b60006020820190508181036000830152610adb8184610a88565b905092915050565b6000604051905090565b600080fd5b600080fd5b600073ffffffffffffffffffffffffffffffffffffffff82169050919050565b6000610b2282610af7565b9050919050565b610b3281610b17565b8114610b3d57600080fd5b50565b600081359050610b4f81610b29565b92915050565b6000819050919050565b610b6881610b55565b8114610b7357600080fd5b50565b600081359050610b8581610b5f565b92915050565b60008060408385031215610ba257610ba1610aed565b5b6000610bb085828601610b40565b9250506020610bc185828601610b76565b9150509250929050565b610bd481610b55565b82525050565b6000602082019050610bef6000830184610bcb565b92915050565b600060208284031215610c0b57610c0a610aed565b5b6000610c1984828501610b76565b91505092915050565b610c2b81610b17565b82525050565b6000602082019050610c466000830184610c22565b92915050565b600060208284031215610c6257610c61610aed565b5b6000610c7084828501610b40565b91505092915050565b600080fd5b600080fd5b7f4e487b7100000000000000000000000000000000000000000000000000000000600052604160045260246000fd5b610cbb82610a77565b810181811067ffffffffffffffff82111715610cda57610cd9610c83565b5b80604052505050565b6000610ced610ae3565b9050610cf98282610cb2565b919050565b600067ffffffffffffffff821115610d1957610d18610c83565b5b610d2282610a77565b9050602081019050919050565b82818337600083830152505050565b6000610d51610d4c84610cfe565b610ce3565b905082815260208101848484011115610d6d57610d6c610c7e565b5b610d78848285610d2f565b509392505050565b600082601f830112610d9557610d94610c79565b5b8135610da5848260208601610d3e565b91505092915050565b600060208284031215610dc457610dc3610aed565b5b600082013567ffffffffffffffff811115610de257610de1610af2565b5b610dee84828501610d80565b91505092915050565b7f4e487b7100000000000000000000000000000000000000000000000000000000600052602260045260246000fd5b60006002820490506001821680610e3e57607f821691505b602082108103610e5157610e50610df7565b5b50919050565b7f4e487b7100000000000000000000000000000000000000000000000000000000600052603260045260246000fd5b600081905092915050565b6000610e9c82610a28565b610ea68185610e86565b9350610eb6818560208601610a44565b80840191505092915050565b6000610ece8284610e91565b915081905092915050565b7f4e487b7100000000000000000000000000000000000000000000000000000000600052601160045260246000fd5b6000610f1382610b55565b9150610f1e83610b55565b925082821015610f3157610f30610ed9565b5b828203905092915050565b6000610f4782610b55565b91507fffffffffffffffffffffffffffffffffffffffffffffffffffffffffffffffff8203610f7957610f78610ed9565b5b60018201905091905056fea2646970667358221220402aa13eb4aa0f97cb2a8c7d3c4c136b74a360f295648f8f8bd39dcf6ed71a2e64736f6c634300080e0033",
  "immutableReferences": {},
  "source": "// SPDX-License-Identifier: MIT\r\npragma solidity ^0.8.0;\r\n\r\nimport \"./ERC721Connector.sol\";\r\n\r\nerror Kryptobird__ALREADY_EXISTS();\r\n\r\ncontract Kryptobird is ERC721Connector {\r\n    // VARIABLES\r\n    string[] private krytoBird;\r\n    mapping(string => bool) krytoBirdExists;\r\n\r\n    // EVENTS\r\n\r\n    // FUNCTIONS\r\n    function mint(string memory _krytoBird) public {\r\n        if (krytoBirdExists[_krytoBird]) revert Kryptobird__ALREADY_EXISTS();\r\n\r\n        krytoBird.push(_krytoBird);\r\n        uint256 _id = krytoBird.length - 1;\r\n\r\n        _mint(msg.sender, _id);\r\n        krytoBirdExists[_krytoBird] = true;\r\n    }\r\n\r\n    constructor() ERC721Connector(\"KryptoBird\", \"KBZ\") {}\r\n}\r\n",
  "sourcePath": "D:\\NON - PROGRAM FILES\\STUDY\\Course.io\\BLOCKCHAIN\\DEVELOPMENT\\nft-marketplace-starter-kit\\src\\contracts\\Kryptobird.sol",
  "compiler": {
    "name": "solc",
    "version": "0.8.14+commit.80d49f37.Emscripten.clang"
  },
  "schemaVersion": "3.4.3",
  "updatedAt": "2022-06-10T02:41:14.625Z",
  "networkType": "ethereum",
  "devdoc": {
    "kind": "dev",
    "methods": {},
    "version": 1
  },
  "userdoc": {
    "kind": "user",
    "methods": {},
    "version": 1
  }
}