{
  "contractName": "Kryptobird",
  "abi": [
    {
      "inputs": [],
      "stateMutability": "nonpayable",
      "type": "constructor"
    },
    {
      "inputs": [],
      "name": "ERC721__ADDRESS_ZERO",
      "type": "error"
    },
    {
      "inputs": [],
      "name": "ERC721__ALREADY_MINTED",
      "type": "error"
    },
    {
      "inputs": [],
      "name": "ERC721__INVALID_USER",
      "type": "error"
    },
    {
      "inputs": [],
      "name": "ERC721__NOT_OWNER",
      "type": "error"
    },
    {
      "inputs": [],
      "name": "ERC721__SAME_ADDRESS",
      "type": "error"
    },
    {
      "inputs": [],
      "name": "Kryptobird__ALREADY_EXISTS",
      "type": "error"
    },
    {
      "anonymous": false,
      "inputs": [
        {
          "indexed": true,
          "internalType": "address",
          "name": "_owner",
          "type": "address"
        },
        {
          "indexed": true,
          "internalType": "address",
          "name": "_approved",
          "type": "address"
        },
        {
          "indexed": true,
          "internalType": "uint256",
          "name": "_tokenId",
          "type": "uint256"
        }
      ],
      "name": "Approval",
      "type": "event"
    },
    {
      "anonymous": false,
      "inputs": [
        {
          "indexed": true,
          "internalType": "address",
          "name": "_from",
          "type": "address"
        },
        {
          "indexed": true,
          "internalType": "address",
          "name": "_to",
          "type": "address"
        },
        {
          "indexed": true,
          "internalType": "uint256",
          "name": "_tokenId",
          "type": "uint256"
        }
      ],
      "name": "Transfer",
      "type": "event"
    },
    {
      "inputs": [
        {
          "internalType": "address",
          "name": "_to",
          "type": "address"
        },
        {
          "internalType": "uint256",
          "name": "_tokenId",
          "type": "uint256"
        }
      ],
      "name": "approve",
      "outputs": [],
      "stateMutability": "nonpayable",
      "type": "function"
    },
    {
      "inputs": [
        {
          "internalType": "address",
          "name": "_owner",
          "type": "address"
        }
      ],
      "name": "balanceOf",
      "outputs": [
        {
          "internalType": "uint256",
          "name": "",
          "type": "uint256"
        }
      ],
      "stateMutability": "view",
      "type": "function",
      "constant": true
    },
    {
      "inputs": [
        {
          "internalType": "uint256",
          "name": "",
          "type": "uint256"
        }
      ],
      "name": "krytoBird",
      "outputs": [
        {
          "internalType": "string",
          "name": "",
          "type": "string"
        }
      ],
      "stateMutability": "view",
      "type": "function",
      "constant": true
    },
    {
      "inputs": [],
      "name": "name",
      "outputs": [
        {
          "internalType": "string",
          "name": "",
          "type": "string"
        }
      ],
      "stateMutability": "view",
      "type": "function",
      "constant": true
    },
    {
      "inputs": [
        {
          "internalType": "uint256",
          "name": "_tokenId",
          "type": "uint256"
        }
      ],
      "name": "ownerOf",
      "outputs": [
        {
          "internalType": "address",
          "name": "",
          "type": "address"
        }
      ],
      "stateMutability": "view",
      "type": "function",
      "constant": true
    },
    {
      "inputs": [
        {
          "internalType": "bytes4",
          "name": "interfaceId",
          "type": "bytes4"
        }
      ],
      "name": "supportsInterface",
      "outputs": [
        {
          "internalType": "bool",
          "name": "",
          "type": "bool"
        }
      ],
      "stateMutability": "view",
      "type": "function",
      "constant": true
    },
    {
      "inputs": [],
      "name": "symbol",
      "outputs": [
        {
          "internalType": "string",
          "name": "",
          "type": "string"
        }
      ],
      "stateMutability": "view",
      "type": "function",
      "constant": true
    },
    {
      "inputs": [
        {
          "internalType": "uint256",
          "name": "index",
          "type": "uint256"
        }
      ],
      "name": "tokenByIndex",
      "outputs": [
        {
          "internalType": "uint256",
          "name": "",
          "type": "uint256"
        }
      ],
      "stateMutability": "view",
      "type": "function",
      "constant": true
    },
    {
      "inputs": [
        {
          "internalType": "address",
          "name": "owner",
          "type": "address"
        },
        {
          "internalType": "uint256",
          "name": "index",
          "type": "uint256"
        }
      ],
      "name": "tokenOfOwnerByIndex",
      "outputs": [
        {
          "internalType": "uint256",
          "name": "",
          "type": "uint256"
        }
      ],
      "stateMutability": "view",
      "type": "function",
      "constant": true
    },
    {
      "inputs": [],
      "name": "totalSupply",
      "outputs": [
        {
          "internalType": "uint256",
          "name": "",
          "type": "uint256"
        }
      ],
      "stateMutability": "view",
      "type": "function",
      "constant": true
    },
    {
      "inputs": [
        {
          "internalType": "address",
          "name": "_from",
          "type": "address"
        },
        {
          "internalType": "address",
          "name": "_to",
          "type": "address"
        },
        {
          "internalType": "uint256",
          "name": "tokenId",
          "type": "uint256"
        }
      ],
      "name": "transferFrom",
      "outputs": [],
      "stateMutability": "nonpayable",
      "type": "function"
    },
    {
      "inputs": [
        {
          "internalType": "string",
          "name": "_krytoBird",
          "type": "string"
        }
      ],
      "name": "mint",
      "outputs": [],
      "stateMutability": "nonpayable",
      "type": "function"
    }
  ],
  "bytecode": "0x60806040523480156200001157600080fd5b506040518060400160405280600a81526020017f4b727970746f42697264000000000000000000000000000000000000000000008152506040518060400160405280600381526020017f4b425a00000000000000000000000000000000000000000000000000000000008152508181816000908162000091919062000328565b508060019081620000a3919062000328565b50505050506200040f565b600081519050919050565b7f4e487b7100000000000000000000000000000000000000000000000000000000600052604160045260246000fd5b7f4e487b7100000000000000000000000000000000000000000000000000000000600052602260045260246000fd5b600060028204905060018216806200013057607f821691505b602082108103620001465762000145620000e8565b5b50919050565b60008190508160005260206000209050919050565b60006020601f8301049050919050565b600082821b905092915050565b600060088302620001b07fffffffffffffffffffffffffffffffffffffffffffffffffffffffffffffffff8262000171565b620001bc868362000171565b95508019841693508086168417925050509392505050565b6000819050919050565b6000819050919050565b60006200020962000203620001fd84620001d4565b620001de565b620001d4565b9050919050565b6000819050919050565b6200022583620001e8565b6200023d620002348262000210565b8484546200017e565b825550505050565b600090565b6200025462000245565b620002618184846200021a565b505050565b5b8181101562000289576200027d6000826200024a565b60018101905062000267565b5050565b601f821115620002d857620002a2816200014c565b620002ad8462000161565b81016020851015620002bd578190505b620002d5620002cc8562000161565b83018262000266565b50505b505050565b600082821c905092915050565b6000620002fd60001984600802620002dd565b1980831691505092915050565b6000620003188383620002ea565b9150826002028217905092915050565b6200033382620000ae565b67ffffffffffffffff8111156200034f576200034e620000b9565b5b6200035b825462000117565b620003688282856200028d565b600060209050601f831160018114620003a057600084156200038b578287015190505b6200039785826200030a565b86555062000407565b601f198416620003b0866200014c565b60005b82811015620003da57848901518255600182019150602085019450602081019050620003b3565b86831015620003fa5784890151620003f6601f891682620002ea565b8355505b6001600288020188555050505b505050505050565b611b61806200041f6000396000f3fe608060405234801561001057600080fd5b50600436106100b45760003560e01c806335557ec11161007157806335557ec11461018d5780634f6ccce7146101bd5780636352211e146101ed57806370a082311461021d57806395d89b411461024d578063d85d3d271461026b576100b4565b806301ffc9a7146100b957806306fdde03146100e9578063095ea7b31461010757806318160ddd1461012357806323b872dd146101415780632f745c591461015d575b600080fd5b6100d360048036038101906100ce9190611181565b610287565b6040516100e091906111c9565b60405180910390f35b6100f1610439565b6040516100fe919061127d565b60405180910390f35b610121600480360381019061011c9190611333565b6104cb565b005b61012b610654565b6040516101389190611382565b60405180910390f35b61015b6004803603810190610156919061139d565b610661565b005b61017760048036038101906101729190611333565b610671565b6040516101849190611382565b60405180910390f35b6101a760048036038101906101a291906113f0565b610721565b6040516101b4919061127d565b60405180910390f35b6101d760048036038101906101d291906113f0565b6107cd565b6040516101e49190611382565b60405180910390f35b610207600480360381019061020291906113f0565b61083e565b604051610214919061142c565b60405180910390f35b61023760048036038101906102329190611447565b6108e6565b6040516102449190611382565b60405180910390f35b610255610994565b604051610262919061127d565b60405180910390f35b610285600480360381019061028091906115a9565b610a26565b005b60007f01ffc9a7000000000000000000000000000000000000000000000000000000007bffffffffffffffffffffffffffffffffffffffffffffffffffffffff1916827bffffffffffffffffffffffffffffffffffffffffffffffffffffffff1916148061035257507f304ad1f2000000000000000000000000000000000000000000000000000000007bffffffffffffffffffffffffffffffffffffffffffffffffffffffff1916827bffffffffffffffffffffffffffffffffffffffffffffffffffffffff1916145b806103ba57507f780e9d63000000000000000000000000000000000000000000000000000000007bffffffffffffffffffffffffffffffffffffffffffffffffffffffff1916827bffffffffffffffffffffffffffffffffffffffffffffffffffffffff1916145b8061042257507f93254542000000000000000000000000000000000000000000000000000000007bffffffffffffffffffffffffffffffffffffffffffffffffffffffff1916827bffffffffffffffffffffffffffffffffffffffffffffffffffffffff1916145b80610432575061043182610b19565b5b9050919050565b60606000805461044890611621565b80601f016020809104026020016040519081016040528092919081815260200182805461047490611621565b80156104c15780601f10610496576101008083540402835291602001916104c1565b820191906000526020600020905b8154815290600101906020018083116104a457829003601f168201915b5050505050905090565b60006104d68261083e565b90508073ffffffffffffffffffffffffffffffffffffffff168373ffffffffffffffffffffffffffffffffffffffff160361053d576040517fcde4871900000000000000000000000000000000000000000000000000000000815260040160405180910390fd5b8073ffffffffffffffffffffffffffffffffffffffff163373ffffffffffffffffffffffffffffffffffffffff16146105a2576040517f6e6381ed00000000000000000000000000000000000000000000000000000000815260040160405180910390fd5b826004600084815260200190815260200160002060006101000a81548173ffffffffffffffffffffffffffffffffffffffff021916908373ffffffffffffffffffffffffffffffffffffffff160217905550818373ffffffffffffffffffffffffffffffffffffffff168273ffffffffffffffffffffffffffffffffffffffff167f8c5be1e5ebec7d5bd14f71427d1e84f3dd0314c0f7b2291e5b200ac8c7c3b92560405160405180910390a4505050565b6000600580549050905090565b61066c838383610b83565b505050565b600061067c836108e6565b82106106bd576040517f08c379a00000000000000000000000000000000000000000000000000000000081526004016106b49061169e565b60405180910390fd5b600760008473ffffffffffffffffffffffffffffffffffffffff1673ffffffffffffffffffffffffffffffffffffffff168152602001908152602001600020828154811061070e5761070d6116be565b5b9060005260206000200154905092915050565b6009818154811061073157600080fd5b90600052602060002001600091509050805461074c90611621565b80601f016020809104026020016040519081016040528092919081815260200182805461077890611621565b80156107c55780601f1061079a576101008083540402835291602001916107c5565b820191906000526020600020905b8154815290600101906020018083116107a857829003601f168201915b505050505081565b60006107d7610654565b8210610818576040517f08c379a000000000000000000000000000000000000000000000000000000000815260040161080f90611739565b60405180910390fd5b6005828154811061082c5761082b6116be565b5b90600052602060002001549050919050565b6000806002600084815260200190815260200160002060009054906101000a900473ffffffffffffffffffffffffffffffffffffffff169050600073ffffffffffffffffffffffffffffffffffffffff168173ffffffffffffffffffffffffffffffffffffffff16036108dd576040517fe945b36300000000000000000000000000000000000000000000000000000000815260040160405180910390fd5b80915050919050565b60008073ffffffffffffffffffffffffffffffffffffffff168273ffffffffffffffffffffffffffffffffffffffff160361094d576040517fe945b36300000000000000000000000000000000000000000000000000000000815260040160405180910390fd5b600360008373ffffffffffffffffffffffffffffffffffffffff1673ffffffffffffffffffffffffffffffffffffffff168152602001908152602001600020549050919050565b6060600180546109a390611621565b80601f01602080910402602001604051908101604052809291908181526020018280546109cf90611621565b8015610a1c5780601f106109f157610100808354040283529160200191610a1c565b820191906000526020600020905b8154815290600101906020018083116109ff57829003601f168201915b5050505050905090565b600a81604051610a369190611795565b908152602001604051809103902060009054906101000a900460ff1615610a89576040517fd4f452c100000000000000000000000000000000000000000000000000000000815260040160405180910390fd5b600981908060018154018082558091505060019003906000526020600020016000909190919091509081610abd9190611958565b5060006001600980549050610ad29190611a59565b9050610ade3382610de1565b6001600a83604051610af09190611795565b908152602001604051809103902060006101000a81548160ff0219169083151502179055505050565b60007f01ffc9a7000000000000000000000000000000000000000000000000000000007bffffffffffffffffffffffffffffffffffffffffffffffffffffffff1916827bffffffffffffffffffffffffffffffffffffffffffffffffffffffff1916149050919050565b600073ffffffffffffffffffffffffffffffffffffffff168273ffffffffffffffffffffffffffffffffffffffff1603610be9576040517fedc5271400000000000000000000000000000000000000000000000000000000815260040160405180910390fd5b8273ffffffffffffffffffffffffffffffffffffffff166002600083815260200190815260200160002060009054906101000a900473ffffffffffffffffffffffffffffffffffffffff1673ffffffffffffffffffffffffffffffffffffffff1614610c81576040517f6e6381ed00000000000000000000000000000000000000000000000000000000815260040160405180910390fd5b6001600360008573ffffffffffffffffffffffffffffffffffffffff1673ffffffffffffffffffffffffffffffffffffffff1681526020019081526020016000206000828254610cd19190611a59565b925050819055506001600360008473ffffffffffffffffffffffffffffffffffffffff1673ffffffffffffffffffffffffffffffffffffffff1681526020019081526020016000206000828254610d289190611a8d565b92505081905550816002600083815260200190815260200160002060006101000a81548173ffffffffffffffffffffffffffffffffffffffff021916908373ffffffffffffffffffffffffffffffffffffffff160217905550808273ffffffffffffffffffffffffffffffffffffffff168473ffffffffffffffffffffffffffffffffffffffff167fddf252ad1be2c89b69c2b068fc378daa952ba7f163c4a11628f55a4df523b3ef60405160405180910390a4505050565b610deb8282610e02565b610df481611008565b610dfe8282611051565b5050565b600073ffffffffffffffffffffffffffffffffffffffff168273ffffffffffffffffffffffffffffffffffffffff1603610e68576040517fedc5271400000000000000000000000000000000000000000000000000000000815260040160405180910390fd5b600073ffffffffffffffffffffffffffffffffffffffff166002600083815260200190815260200160002060009054906101000a900473ffffffffffffffffffffffffffffffffffffffff1673ffffffffffffffffffffffffffffffffffffffff1614610f01576040517f8599843600000000000000000000000000000000000000000000000000000000815260040160405180910390fd5b816002600083815260200190815260200160002060006101000a81548173ffffffffffffffffffffffffffffffffffffffff021916908373ffffffffffffffffffffffffffffffffffffffff160217905550600360008373ffffffffffffffffffffffffffffffffffffffff1673ffffffffffffffffffffffffffffffffffffffff1681526020019081526020016000206000815480929190610fa390611ae3565b9190505550808273ffffffffffffffffffffffffffffffffffffffff16600073ffffffffffffffffffffffffffffffffffffffff167fddf252ad1be2c89b69c2b068fc378daa952ba7f163c4a11628f55a4df523b3ef60405160405180910390a45050565b6005805490506006600083815260200190815260200160002081905550600581908060018154018082558091505060019003906000526020600020016000909190919091505550565b600760008373ffffffffffffffffffffffffffffffffffffffff1673ffffffffffffffffffffffffffffffffffffffff168152602001908152602001600020805490506008600083815260200190815260200160002081905550600760008373ffffffffffffffffffffffffffffffffffffffff1673ffffffffffffffffffffffffffffffffffffffff1681526020019081526020016000208190806001815401808255809150506001900390600052602060002001600090919091909150555050565b6000604051905090565b600080fd5b600080fd5b60007fffffffff0000000000000000000000000000000000000000000000000000000082169050919050565b61115e81611129565b811461116957600080fd5b50565b60008135905061117b81611155565b92915050565b6000602082840312156111975761119661111f565b5b60006111a58482850161116c565b91505092915050565b60008115159050919050565b6111c3816111ae565b82525050565b60006020820190506111de60008301846111ba565b92915050565b600081519050919050565b600082825260208201905092915050565b60005b8381101561121e578082015181840152602081019050611203565b8381111561122d576000848401525b50505050565b6000601f19601f8301169050919050565b600061124f826111e4565b61125981856111ef565b9350611269818560208601611200565b61127281611233565b840191505092915050565b600060208201905081810360008301526112978184611244565b905092915050565b600073ffffffffffffffffffffffffffffffffffffffff82169050919050565b60006112ca8261129f565b9050919050565b6112da816112bf565b81146112e557600080fd5b50565b6000813590506112f7816112d1565b92915050565b6000819050919050565b611310816112fd565b811461131b57600080fd5b50565b60008135905061132d81611307565b92915050565b6000806040838503121561134a5761134961111f565b5b6000611358858286016112e8565b92505060206113698582860161131e565b9150509250929050565b61137c816112fd565b82525050565b60006020820190506113976000830184611373565b92915050565b6000806000606084860312156113b6576113b561111f565b5b60006113c4868287016112e8565b93505060206113d5868287016112e8565b92505060406113e68682870161131e565b9150509250925092565b6000602082840312156114065761140561111f565b5b60006114148482850161131e565b91505092915050565b611426816112bf565b82525050565b6000602082019050611441600083018461141d565b92915050565b60006020828403121561145d5761145c61111f565b5b600061146b848285016112e8565b91505092915050565b600080fd5b600080fd5b7f4e487b7100000000000000000000000000000000000000000000000000000000600052604160045260246000fd5b6114b682611233565b810181811067ffffffffffffffff821117156114d5576114d461147e565b5b80604052505050565b60006114e8611115565b90506114f482826114ad565b919050565b600067ffffffffffffffff8211156115145761151361147e565b5b61151d82611233565b9050602081019050919050565b82818337600083830152505050565b600061154c611547846114f9565b6114de565b90508281526020810184848401111561156857611567611479565b5b61157384828561152a565b509392505050565b600082601f8301126115905761158f611474565b5b81356115a0848260208601611539565b91505092915050565b6000602082840312156115bf576115be61111f565b5b600082013567ffffffffffffffff8111156115dd576115dc611124565b5b6115e98482850161157b565b91505092915050565b7f4e487b7100000000000000000000000000000000000000000000000000000000600052602260045260246000fd5b6000600282049050600182168061163957607f821691505b60208210810361164c5761164b6115f2565b5b50919050565b7f6f776e657220696e646578206973206f7574206f6620626f756e647321000000600082015250565b6000611688601d836111ef565b915061169382611652565b602082019050919050565b600060208201905081810360008301526116b78161167b565b9050919050565b7f4e487b7100000000000000000000000000000000000000000000000000000000600052603260045260246000fd5b7f676c6f62616c20696e646578206973206f7574206f6620626f756e6473210000600082015250565b6000611723601e836111ef565b915061172e826116ed565b602082019050919050565b6000602082019050818103600083015261175281611716565b9050919050565b600081905092915050565b600061176f826111e4565b6117798185611759565b9350611789818560208601611200565b80840191505092915050565b60006117a18284611764565b915081905092915050565b60008190508160005260206000209050919050565b60006020601f8301049050919050565b600082821b905092915050565b60006008830261180e7fffffffffffffffffffffffffffffffffffffffffffffffffffffffffffffffff826117d1565b61181886836117d1565b95508019841693508086168417925050509392505050565b6000819050919050565b600061185561185061184b846112fd565b611830565b6112fd565b9050919050565b6000819050919050565b61186f8361183a565b61188361187b8261185c565b8484546117de565b825550505050565b600090565b61189861188b565b6118a3818484611866565b505050565b5b818110156118c7576118bc600082611890565b6001810190506118a9565b5050565b601f82111561190c576118dd816117ac565b6118e6846117c1565b810160208510156118f5578190505b611909611901856117c1565b8301826118a8565b50505b505050565b600082821c905092915050565b600061192f60001984600802611911565b1980831691505092915050565b6000611948838361191e565b9150826002028217905092915050565b611961826111e4565b67ffffffffffffffff81111561197a5761197961147e565b5b6119848254611621565b61198f8282856118cb565b600060209050601f8311600181146119c257600084156119b0578287015190505b6119ba858261193c565b865550611a22565b601f1984166119d0866117ac565b60005b828110156119f8578489015182556001820191506020850194506020810190506119d3565b86831015611a155784890151611a11601f89168261191e565b8355505b6001600288020188555050505b505050505050565b7f4e487b7100000000000000000000000000000000000000000000000000000000600052601160045260246000fd5b6000611a64826112fd565b9150611a6f836112fd565b925082821015611a8257611a81611a2a565b5b828203905092915050565b6000611a98826112fd565b9150611aa3836112fd565b9250827fffffffffffffffffffffffffffffffffffffffffffffffffffffffffffffffff03821115611ad857611ad7611a2a565b5b828201905092915050565b6000611aee826112fd565b91507fffffffffffffffffffffffffffffffffffffffffffffffffffffffffffffffff8203611b2057611b1f611a2a565b5b60018201905091905056fea264697066735822122099ff70a16faed62d5491b5f032e8d42d79370c2985d2e761976d130aec3e395364736f6c634300080f0033",
  "immutableReferences": {},
  "source": "// SPDX-License-Identifier: MIT\r\npragma solidity ^0.8.0;\r\n\r\nimport \"./ERC721Connector.sol\";\r\n\r\nerror Kryptobird__ALREADY_EXISTS();\r\n\r\ncontract Kryptobird is ERC721Connector {\r\n    // VARIABLES\r\n    string[] public krytoBird;\r\n    mapping(string => bool) krytoBirdExists;\r\n\r\n    // EVENTS\r\n\r\n    // FUNCTIONS\r\n    function mint(string memory _krytoBird) public {\r\n        if (krytoBirdExists[_krytoBird]) revert Kryptobird__ALREADY_EXISTS();\r\n\r\n        krytoBird.push(_krytoBird);\r\n        uint256 _id = krytoBird.length - 1;\r\n\r\n        _mint(msg.sender, _id);\r\n        krytoBirdExists[_krytoBird] = true;\r\n    }\r\n\r\n    constructor() ERC721Connector(\"KryptoBird\", \"KBZ\") {}\r\n}\r\n",
  "sourcePath": "D:\\NON - PROGRAM FILES\\STUDY\\Course.io\\BLOCKCHAIN\\DEVELOPMENT\\nft-marketplace-starter-kit\\src\\contracts\\Kryptobird.sol",
  "compiler": {
    "name": "solc",
    "version": "0.8.15+commit.e14f2714.Emscripten.clang"
  },
  "schemaVersion": "3.4.3",
  "updatedAt": "2022-07-04T10:22:19.329Z",
  "networkType": "ethereum",
  "devdoc": {
    "kind": "dev",
    "methods": {},
    "version": 1
  },
  "userdoc": {
    "kind": "user",
    "methods": {},
    "version": 1
  }
}